:100000000C94695A0C94D35A0C94D35A0C94D35A26
:100010000C94D35A0C94D35A0C94D35A0C94D35AAC
:100020000C94D35A0C94D35A0C94D35A0C94D35A9C
:100030000C94D35A0C943C5D0C947C5D0C94D35A74
:100040000C94D35A0C94D35A0C94D35A0C94D35A7C
:100050000C94D35A0C94D35A0C94D35A0C94D35A6C
:100060000C94D35A0C94D35A0C94D35A0C94D35A5C
:10007000256EF46F606E716E826E936EA56EC36EA8
:10008000E86E0D6F326F846F3A7060716B707270D2
:100090007970807087709470A170AE70BB701271AF
:1000A0008100450027FF24FF2A902B1C210C22FBF6
:1000B000850084008903888D81096F0244424700CE
:1000C0004501B083B300B10125118A4F8B035A5506
:1000D00001200101003808000000000000000000BD
:1000E0000000000000000000000000000000C75FEA
:1000F000CA5F26602A603160D25FD75FDC5F3960FB
:10010000DF5FE25FE55F2060236049600040889127
:10011000D2E4ADB5B6BEBFFF050300131415161724
:1001200018191A1B1C1D1E1F0005040001020304E0
:1001300005060708090A0B0C0D000E0F101112001E
:1001400000000000000000000000000000000000AF
:10015000000000000000000000000000000000009F
:10016000000000000000000000000000000000008F
:10017000000000000000000000000000000000007F
:10018000000000000000000000000000000000006F
:100190000000000000000000000000000000490016
:1001A000000000004952520000004952531C250033
:1001B0004952522425251B52525C2D2D1C1212002F
:1001C0000000000000000000000000404949490014
:1001D000404949525B5B5B4A52525B1C1C13125BE9
:1001E0001C241C12090909241B12090909090A0AFD
:1001F0000A0A0A0A0A0A130A0A120A0A12130A0047
:100200000000000000000092525252525252491314
:10021000121309001C1B130A1212401B65641C09EF
:100220000A0009241B1C65120000251C1C1C1C0153
:100230000025241C1C1C1C0024252424241C1C0018
:1002400000000000000000494000000000000052D3
:10025000494900000000001C5B4A48000000001CE7
:100260002552490000000065246449000000006533
:10027000256449000000006D2E5C4900000000006C
:1002800000000000004052000000000049525C00E5
:10029000000000535224250000005352252525005C
:1002A000004A5225251B0000005B251300001B009F
:1002B0005B53000A1C3737095B1C657F372E2E52B3
:1002C0002E2E1C131312002E251B13120000121CBD
:1002D0001C12000012251C120000122E371C1300E5
:1002E000132E37361C131B37372E2E25131C1C2EAE
:1002F0002E2E2E1B1C1C1C6E6E6E1C1C1C1C1C0926
:100300001313121213130013131313131C000913E6
:100310001313131C0100371313131C13002E2E1B71
:100320001B1C1C001C772E1B1B2500137F251C1C6F
:100330001C010A37241C1C1C130A2E252509001336
:100340002E2425252525252E25252525252525254C
:10035000252D2E251B1C1C2E2E251C13251B13257D
:100360001C1C1C1C0109521C1C1300011C5B5C0A98
:10037000000165775C1B00016E7F6E521B00006DF3
:100380001C5249000000001C135300000000001C18
:10039000524A00000000005B5B0000000000005CAF
:1003A000000000000000000000000000000000004D
:1003B000000000000000000000000000000000132A
:1003C0005B7F776E6E6E6E136577766E6E6E6E1BEC
:1003D00065777676766E771B5BBF76B6767676092E
:1003E000136DBFB7B6B765001B125C76BF766D00A4
:1003F00000121B125B5B5C00000000090A12136E06
:1004000077241C1C1C1C1C77251C1C1C1C24256E02
:100410001C1C1C2425251B1C1C24252513000064E2
:100420006D6D1B00096EBF6D5B09126EBF6D5B5B6E
:10043000125B645B121312131B1212090100001CE1
:10044000242E1C0900096E2524010009767F7F00F7
:100450000012777F7F641264BFBF775B121B09BFF6
:100460006D5B121B09000012131B0900000000093C
:100470000000000000000000000000000000007FFD
:100480007F53131300000064121B01000000001BC7
:10049000120000000000000000000000000000004A
:1004A000000000000000000000000000000000004C
:1004B000000000000000000000000000000000003C
:1004C0000000000000000026000000260026262F65
:1004D0000000002F0000003700000037000000FF80
:1004E000000000FF000000BF000000BF0000BF3799
:1004F00000003700003700002626000000262600F6
:1005000000000000000000262626002626262600E1
:10051000002F002F0000000037000037000000FF10
:10052000000000FFFFFFFF00000000BF0000000010
:10053000000000370000002626260026262626007A
:1005400000000000000000260026262626000000ED
:10055000002F0000002F00000037000000370000CF
:1005600000FFFFFFFF00000000BF000000BF000011
:10057000003700000037002600262626260000004F
:1005800000000000000000000026262600260000D3
:100590002F00002F002F003700000037000037FF2A
:1005A000000000FF000000BF000000BF0000BF37D8
:1005B0000000370000370026262600000026000035
:1005C0000000000000000000002600000000000005
:1005D000002F00000000000037000000000000FFB6
:1005E0000000000000000000BF000000000000004C
:1005F000003700000000000000260000000000009E
:1006000000000000000000000000000000000000EA
:100610000000000000000000000000000000E400F6
:10062000000000099BEDF60000009BA4ADBFBF00D9
:10063000529BA4767F7FB75B9B6D777F766EB7000A
:1006400000000000000000000000005BB6F6F600AD
:100650005BF6FFFFFFFFBFF6FFFFFFFFBFBFAEFF71
:10066000BFFFFFFFB7AD65BFBFFFFFB7B6AD65B753
:10067000BFFFFFBFB7AE6EB7BFFFFFBFB7B7650025
:1006800000000000000000F6F6EDEDADA4A49BB65E
:100690006D6D5C526E65646565655265766D255C51
:1006A0005C52536E24656E6552526E252524255B7F
:1006B00052772D25252524526E6E2D2525252500C2
:1006C000000000000000009B49000000000000A4A2
:1006D0009B92000000000025649349000000006523
:1006E0002E9B52000000006D256552000000006D39
:1006F0002D6552000000006E2E64520000000000C4
:100700000000000000495B00000000004A5B65003B
:100710000000005B9B6D2D0000005B5B2D2E250013
:1007200000525B2E2E1C0900015B2D1C01091C00D0
:100730005C5B014A65777F4A5B1C6E7F7777769BAF
:1007400077776D656E6EA4776E6565655BA4B7257A
:10075000255C52526DBFBF130949647FBFBFBF09FB
:100760005C7F7FBFBFB7BF7F7F777F7FB7BFBF771C
:10077000777F7F6EB7BFBF777F7F6E77BFBFBFB614
:10078000FFFFFFBFBFB75BBFFFFFFFBFBFA464BFDB
:10079000FFFFFFBFADA47FBFFFFFFFBFA4BF7FFF71
:1007A000FFFFBFADBFBFBFFFFFFFB6BFBFBF77FF3C
:1007B000FFF7BFBFBF7777FFFFFFBFBFBF64526DBB
:1007C0007F6E2E2D2D256E7F766E6E6E2E256577B3
:1007D0007777762E1C25247F776E251C251C1B77AA
:1007E0006525251C090A5B6E6E1C09492564645B3E
:1007F000494A6E7F645C005377BF775B5C00006E94
:10080000255B4A000000001C1B5B00000000002468
:100810005B5300000000005B5C000000000000640F
:1008200000000000000000000000000000000000C8
:100830000000000000000000000000000000005B5D
:100840005C7FBF777677775C6D7FB7777777775CFC
:100850006D7FBF777777BF5C64BFBFBFBFBF7F0AC5
:100860005C6EBFBFBFBF760065646DBFBFBFBF001A
:10087000005B6D646DADB600000000125B646D77C7
:100880007F6E6E77BFBFBF7F766D7677BFBFBF7756
:100890006D6E767FBFBFBF6D6E767FBFB7ADF676EC
:1008A000BFBF76A4ADFFFFBFB664ADFFFFFFFFB6CD
:1008B000ADBFFFFFFFFFF6ADB6AD645B520000FFBA
:1008C000FFBFBFAD5B64BFFFFFB6ADADBFFFBFFFF6
:1008D000F6FFFFFFFFBF64FFFFFFFFBFB6765BFFC2
:1008E000FFFFBFBF5B0000FFFFFF5C00000000A434
:1008F000000000000000000000000000000000BF39
:10090000BF645C5C0000006E5C6549000000006D27
:100910005B0000000000000000000000000000007C
:1009200000000000000000000000000000000000C7
:1009300000000000000000000000000000000000B7
:1009400000004809000000000002080008550408E3
:100950005A0000F8000990000A1E32050000FF004E
:100960000105020304090607080B0A000103040538
:1009700002070809060B0A000000FF010101FF023F
:100980000202FF030303FF04040400000000000050
:100990000000000000000000000000000000000057
:1009A000020000000000000000000600000000003F
:1009B000000000000000000000020000070000002E
:1009C0000000000000000000000005000000000022
:1009D0000000000000000002000000000000000015
:1009E000000A0005000000000000000000000000F8
:1009F0000200000B000000000000000000000000EA
:100A000000000000000000000000030000000000E3
:100A100000000000000000000000060000000000D0
:100A200000000003070000000000070700000000AE
:100A300003000100000000000000000000000000B2
:100A40000000000000000000000306010000000795
:100A50000000000000000000000000000000000096
:100A60000007070000000000000000000104000073
:100A70000000000100010000000000000000000074
:100A8000000000000601040000080007010001004A
:100A90000000000000000000070707000000000041
:100AA0000000000100000000000100000000000044
:100AB000020000000000090000000607010000001D
:100AC000000001000000000000020000000000071C
:100AD0000707000000000000000000000000000AFE
:100AE00000000500000000000002000000000000FF
:100AF00000000006000000000A00000500000000E1
:100B000000000200000007000000000000000000DC
:100B100000060000000100000000000000000002CC
:100B200000000000000000000000060000000100BE
:100B30000000000907000000020000000007070095
:100B400000000000000000000000000000000000A5
:100B5000000000000005000000020000000000008E
:100B6000000000060000000000000000000A050070
:100B7000000002000B070000000000000000000061
:100B80000000000000000400000001000000000060
:100B9000010000000000000000000006000000044A
:100BA000000000010807000000010007070700001F
:100BB000000000000400000006000000000000002B
:100BC000000000010000000200000000000400001E
:100BD0000006000000000A070000000001000000FD
:100BE00002000B07000000000003000000000006E8
:100BF00000000000000000000000070000000000EE
:100C000000000300060000000600000000000000D5
:100C100000000807000000000007070000000000B7
:100C200000000000000000000001000000000005BE
:100C300000000100050000000000000006000000A8
:100C4000000001000000080A05000001080500007E
:100C50000B0707070003000000000000000007006A
:100C60000001000400010001000000000007030073
:100C70000000060A00000007000001000400010057
:100C8000010008000000070B070700000000000437
:100C90000000000000000000000000000000000054
:100CA00000020000000000000400000A000700002D
:100CB00000000000000000000000020000000B0720
:100CC0000000000000000300000000000000000021
:100CD000000000000000000002000000000000030F
:100CE00006000A00000700000000000000000000ED
:100CF00000020000000B0707000000000000000ACF
:100D000006000000000006000001000005000000D1
:100D100002000000000000000A06000000080006B3
:100D200000000108000500000002000007070000A5
:100D300000010000000600010200000000000000A9
:100D4000000000000100000000000100090006068C
:100D50000102000008000000070000000001000080
:100D60000000000707070700000400000000000063
:100D7000000600000000000001000000000000006C
:100D8000000004000000000000000600080000074A
:100D90000001000000000000000007070000000044
:100DA0000000040000000000000300000A00000032
:100DB000000000000000000000000004000000002F
:100DC00000060300000A0700000000000000000009
:100DD00000070700000000000900000000000007F5
:100DE00004000000000001000005000007000000F2
:100DF00000090006000000000704000000000001D8
:100E00000A000508000700000B07070000000000AB
:100E100000000000000001000800000003000000C6
:100E200000000000000200000000000006000001B9
:100E30000008000006030000000B00000000020B89
:100E40000707000000060000000000000006020086
:100E50000000000003000007000000000009060079
:100E60000000000B0000060200000000000300006C
:100E70000700000000000B07000000000000040055
:100E8000000000000000000100000000000200005F
:100E90000000000000000004000000000B0600003D
:100EA000010907000000020000000000000B070716
:100EB000070000000000000000000000000001002A
:100EC0000003000000000001000005000000000019
:100ED000000000060000000100000300000B0000FD
:100EE000010008050B0707000000000000000000DB
:100EF000000000000000000001000A0000000000E7
:100F000005020000000000000600000000000000D4
:100F10000001080A0006000008050207070707008D
:100F200004000900010000000000000001000208A8
:100F30000000070000000000000400090601000096
:100F40000B0006000001000208000007000000007E
:100F500000000B070700000900000100000001006D
:100F60000001000000000000000A00000000000076
:100F70000906000100070001000001000000000058
:100F800008000A0500000002000505070707030026
:100F9000000600000003000000000001000008003F
:100FA0000000000000000003000006000006030A25
:100FB000060000000100000800000700000000001B
:100FC0000B070707000100000000000003000000FD
:100FD0000100000000000000010000030000010902
:100FE0000006000007030B000001000000000000E5
:100FF000000100000307000B0707070709000001B5
:1010000000000001000000010000000000000A00D4
:1010100000000000000906000100000701000000B8
:10102000010000000800000A05000000020005059C
:101030000707070000000000000000000004030094
:101040000100000000010000010000070000000096
:10105000000000000006040306010008000A010069
:1010600000010800070B0707070700040400000041
:1010700000000006000000000000000A000100005F
:101080000000000004040000000000000600000052
:10109000090700080A07010000000000070707070A
:1010A000000000060000000000000000000000003A
:1010B0000000000005030001000000090600000018
:1010C000000700000000000000000A000005030700
:1010D0000100000B070707000004040000000000E7
:1010E0000006000000000000000B000000000000EF
:1010F00000000404000006080000060000000000D4
:1011000008000B00070000000000070707070000A9
:1011100003000000000000000600000001000003C2
:1011200000000700000800000003060000000000A7
:10113000000600000001000003000B070000080784
:10114000000B070700000004000000000000000082
:1011500003000000000000000A0000000000000082
:101160000400000000000000060300000600000864
:10117000000A070000000000070707070000000042
:101180000000000000010004030000000000000156
:101190000000010000070000000000000006010040
:1011A000040300000608000B010000010800070B03
:1011B000070707070900000000000000000000000A
:1011C000000300000000000000000700020900000A
:1011D00000060000060000000000030B00000000F5
:1011E0000008000700020B070707000003000000CB
:1011F00000000001000003000000000008000000E3
:1012000000000000000300000600000601000003CB
:101210000006000000080B0700000000000B070795
:10122000070700FF06015300C00000B007640090EC
:10123000396400C10000B107640091536400C2002A
:1012400000B207640092546461902D640E3964000A
:10125000914F64009254640E53641B58642AC0007A
:1012600000B0076400C10000B1076400C20000B212
:101270000764009253640E902D640E3E64009151F9
:101280006400925864454C640E51640E58640E908C
:1012900040640091536400925664389156641CC0B7
:1012A0000000B0076400C10000B1076400C2000084
:1012B000B207641B903E64009151640092586470C0
:1012C0009040640091546400925D64145B6415590D
:1012D000640E58641CC00000B0076400C10000B177
:1012E000076400C20000B20764009254641C903E80
:1012F000640091476400925D646F904C6400925C5E
:101300006453C00000B0076400C10000B10764006E
:10131000C20000B207641C904C6400C00000B0071B
:10132000640091476400C10000B1076400C200007E
:10133000B2076400925C640491456400925A6403AD
:10134000914464009257640491426400925464038F
:101350009140640092506404913D6400924C640397
:10136000913B640092456407903964009151640098
:101370009254640790396407396400915164009273
:1013800054640790396400914F640092536407904D
:1013900039640739640091516400925464079039AC
:1013A0006407396400914F64009253640790396474
:1013B00007396400915164009254640790396407BE
:1013C000396400914F640092536407903964063980
:1013D0006400915164009254640790376400914F07
:1013E000640092536407903964073E64009151642D
:1013F0000092546407903E64073E6400915164007B
:1014000092546407903E6400914F640092536407C5
:10141000903E64073E6400915164009254640790CA
:101420003E64073E6400914F640092536407903E0F
:1014300064073E64009151640092546407903E64D6
:10144000073E6400914F640092536407C00000B0EF
:10145000076400903E6400C10000B1076400C20050
:1014600000B2076407903E64009151640092546496
:1014700007903E64009154640092586407903E6463
:1014800007376400915364009256640690376407EE
:10149000376400915364009256640790376400915A
:1014A0005164009254640790376407376400915385
:1014B0006400925664079037640737640091516462
:1014C00000925464079037640737640091536400B6
:1014D0009256640790376407376400915164009214
:1014E0005464079037640737640091536400925640
:1014F000640790376400914F6400925364079037FB
:10150000640739640091516400925464079039640F
:101510000739640091516400925464079039640063
:10152000914F6400925364079039640739640091C5
:101530005164009254640690396407396400914FF5
:1015400064009253640790356407356400915164D8
:10155000009254640790356407356400914F64002D
:101560009253640790376400C00000B0076400C164
:101570000000B1076400C20000B207640790436432
:1015800000915164009254640790376400914F6455
:1015900000925364079043640739640091546400D7
:1015A000924C6407914C6407903964009153640035
:1015B000924C64074C64079039640091516407921F
:1015C0004C640790396400914F6407516400924C59
:1015D000640790396407915164009258640690340E
:1015E000640739640E346407396407914C640790CA
:1015F0003E640091546400924C6407914C640790DF
:101600003E640091536400924C64074C6407903E22
:10161000640091516407924C6407903E6400914FBE
:101620006407516400924C6407903E6407925864CA
:1016300007903964073E6407C00000B0076400C12A
:101640000000B1076400C20000B20764079039646B
:10165000073E6406914C640790376400915664001D
:10166000924F6407914C6407903764009154640072
:10167000924F640791536400924F64079037640758
:10168000924F640790376407914C6400924F64074F
:1016900090376400915664074C6400924F64079041
:1016A000326400915464079037640091536400924F
:1016B0004F640E90326400924F640790376400923A
:1016C0004F6407914C640790396400915464009210
:1016D0004C6407914C640790396400915364009204
:1016E0004C64074C64069039640091516407924C35
:1016F000640790396400914F6407516400924C6410
:101700000790356407925B641590376400C0000051
:10171000B007640091516400C10000B1076400C2C9
:101720000000B2076400925D640E90376407914C2C
:1017300064079039640091546400924C6407914CA2
:1017400064079039640091536400924C64074C64C0
:10175000079039640091516407924C640790396492
:1017600000914F6407516400924C640690396407FD
:10177000915164009254640790346407396407916E
:101780005164009254640790346407396407914CA3
:101790006407903E640091546400924C6407914C3D
:1017A0006407903E640091536400924C64074C645B
:1017B00007903E640091516407924C6407903E6428
:1017C00000914F6407516400924C6407903E640797
:1017D0009151640092546407903964073E6407C0D5
:1017E0000000B0076400C10000B1076400915164BB
:1017F0000092546400C20000B20764069039640786
:101800003E6407914C6407903764009156640092DF
:101810004F6407914C6407903764009154640092C0
:101820004F640791536400924F64079037640792A6
:101830004F640790376407914C6400924F6407909F
:10184000376400915664074C6400924F64079032ED
:101850006400915464079037640091536400924F80
:10186000640E90326400924F640790376400924F88
:101870006407914C64079039640091546400924C61
:101880006406914C64079039640091536400924C53
:1018900064074C64079039640091516407924C646A
:1018A0000790396400914F6407516400924C6407BB
:1018B00090356407925B641590376400C00000B0F7
:1018C00007640091516400C10000B1076400C200C8
:1018D00000B2076400925D640E9037640E396400B4
:1018E00091546400924C640E9039640091536400EA
:1018F000924C640791516400924C640790396407DC
:10190000914F6400924C640690396407914F6400D3
:10191000924C64079039640791516400924C6407BB
:1019200090346407396400914F6400924C640491D0
:1019300051640351640451640390346400924C6414
:10194000079039640091546400924C640791546488
:1019500007903E640091546400924D640E903E6482
:101960000091536400924D640791516400924D645C
:1019700007903E6407914F6400924D6407903E6467
:1019800007914F6400924D640391516404903E644A
:101990000091516403516404516400924D640690B7
:1019A0003964073E6400924D6407C00000B00764CC
:1019B00000C10000B1076400C20000B207640790D4
:1019C000396400924D6407903E6400914F64009228
:1019D0004D640E9037640091566400924F640E90EF
:1019E00037640091546400924F64079153640092ED
:1019F0004F640790376407914F6400924F640790DB
:101A000037640791566400924F64079037640791DA
:101A1000546400924F640790326407376400915316
:101A20006400924F640E90326400924F64079037C6
:101A30006400914F6400924F6406914C64079039A2
:101A4000640091516400924C64079151640790398D
:101A50006400914F6400924C640791516400924C71
:101A600064079039640791546400924C640790397C
:101A70006400924C6407914F640451640390356490
:101A800000915164009241640491516403516407D0
:101A9000903564009241640E90376400C00000B03D
:101AA000076400C10000B107640092436400C200F3
:101AB00000B207640E90376400915364009243644F
:101AC0000E90396400915464009258640E90396409
:101AD00000915364009256640791516400925464DB
:101AE0000690396407914F640092536407903964FB
:101AF00007914F64009253640491516400925464BE
:101B000003903964009151640092546404915164CB
:101B100000925464039151640092546407903464B9
:101B200007396400924C640E90346400924C640750
:101B30009039640091546400924C640E903E6400AD
:101B400091546400924D640E903E64009153640081
:101B5000924D640791516400924D6407903E640772
:101B6000914F6400924D6407903E6407914F64006A
:101B7000924D640391516403903E6400915164045A
:101B8000516403516400924D6407903964073E64C8
:101B900000924D6407C00000B0076400C10000B1AE
:101BA000076400C20000B207640790396400924DD8
:101BB0006407903E6400924D640E90376400915625
:101BC0006400924F640E9037640091546400924F09
:101BD000640791536400924F640790376407924FF3
:101BE000640790376407924F6407903764009156FA
:101BF0006407924F640790326400915464079037F1
:101C0000640091536400924F640D90326400924FCF
:101C1000640790376400924F640E903964009151CC
:101C200064009258640E90396400914F640092569B
:101C30006407915164009258640790396407915485
:101C40006400925B640790396407914F6400925678
:101C5000640391516400925764049035640091517B
:101C60006400925864039151640092586404915145
:101C70006400925B64079035640E376400C0000016
:101C8000B007640091516400C10000B1076400C254
:101C90000000B2076400925D640E9037640E3964F0
:101CA00000915864009245640D9039640091566427
:101CB0000092456407915564079039640092456429
:101CC0000791516407903964009245640791586404
:101CD0000092456407903964009245640791566408
:101CE000079034640092456407903964009154640D
:101CF000009245640E903464009245640790396404
:101D0000009245640E9034640091576400925364CD
:101D10000391586404586403586404903464009137
:101D20005864075864009253640790346407915ACA
:101D3000640092536406903464079158640092538F
:101D40006407903464079253640790346407915099
:101D500064009253640790346400C00000B00764CC
:101D60000091506400C10000B10764009253640008
:101D7000C20000B207640E90346400915064009277
:101D80005364079150640092536407903564009146
:101D9000546400924D64074D640790356400924D81
:101DA00064074D640790376400C00000B00764000A
:101DB000C10000B107640091566400924F6400C2F4
:101DC0000000B2076407924F640790376400924F97
:101DD00064074F6407903C6400915864009260640B
:101DE0000E903C640091566406546400924F640760
:101DF000903C6407924F6407903C6400924F640EDD
:101E0000903C640091586400924F640E90376400D7
:101E100091566400924F6407903C640091546400B2
:101E2000924F640E9037640091566400924F6403A1
:101E300091576404903C640091586400924F64038D
:101E400091586404586403586404903764009156B0
:101E50006400924F640E9037640091566400924F74
:101E6000640791566400924F640790376407915657
:101E70006400926064039157640490376400915841
:101E800064035864035864045864039037640091F1
:101E9000566400925F640E90326400925D64079015
:101EA000376407C00000B0076400C10000B10764D8
:101EB00000C20000B2076400925B640790326407BE
:101EC00037640E3E640091596400925D640E903E4A
:101ED000640091586400925B6407915664009259C3
:101EE0006407903E640E3E640091566400924D6417
:101EF0000E903E640091596400925D640E903964C6
:101F00000091586400925B6407903E6400915664AF
:101F1000009259640D903964009158640459640327
:101F2000903E6400915964045964035964045964EF
:101F300003903964009158640E90396400925164A2
:101F400007915464009251640790396407925D646C
:101F50000790396400925D640E903564009154647A
:101F6000009260640E903564009260640E90376455
:101F700000C00000B0076400C10000B10764009118
:101F8000566400925B6400C20000B207640792606E
:101F900064079037640D3C6400915864009260645B
:101FA0000E903C640091566407546400924F64079D
:101FB000903C6407924F6407903C6400924F640E1B
:101FC000903C640091586400924F640E9037640016
:101FD00091566400924F6407903C640091546400F1
:101FE000924F640E9037640091566400924F6403E0
:101FF00091576404903C640091586400924F6403CC
:1020000091586404586403586404903764009156EE
:102010006400924F640E9037640091566400924FB2
:10202000640791566400924F640790376406915696
:10203000640092606404915764039037640091587F
:10204000640458640358640458640390376400912E
:10205000566400925F640E90326400925D64079053
:10206000376407C00000B0076400C10000B1076416
:1020700000925B6400C20000B207640790326407FC
:1020800037640E3E640091596400925D640E903E88
:10209000640091586400925B640791566400925901
:1020A0006407903E640E3E640091566400924D6455
:1020B0000E903E640091596400925D640D90396405
:1020C0000091586400925B6407903E6400915664EE
:1020D000009259640E903964009158640459640365
:1020E000903E64009159640459640359640459642E
:1020F00003903964009158640E90396400924864EA
:102100000751640790396407925D64079039640051
:1021100091486400925D640E903564009260640E94
:1021200090356400914864009260640791486407A8
:1021300090376400C00000B0076400C10000B10720
:102140006400925B6400C20000B207640D903764C3
:1021500000914A64074A6407903564009154640012
:102160009241640751640790356400915464009271
:102170004164079154640092516407903564009261
:102180004164079154640092516407903564009251
:102190004164079154640092516407903564009241
:1021A0004164079151640092516407903064009239
:1021B00041640790356400914D6400924164079139
:1021C0004D64009251640790306407356400914D6E
:1021D000640092416407914D640092516407903706
:1021E000640091566400924364074F64079037641B
:1021F00000915664009243640691566400924F64C5
:1022000007903764009243640791566400924F64CC
:1022100007903764009243640791566400924F64BC
:1022200007903764009243640791536400924F64AF
:10223000049151640390326400914F6400924F64A2
:10224000079037640092436407C00000B007640041
:1022500091516400C10000B1076400924F6400C254
:102260000000B207640790326400924F6407903711
:102270006400914F6400924364074F64079039648F
:1022800000915164009245640748640790396400E6
:102290009254640745640790396400914F6400923A
:1022A0004864039151640451640092546403915151
:1022B00064049039640092456406914F640092452D
:1022C0006404915164039035640091516400925804
:1022D0006404915164035164045164039035640EA5
:1022E000376400C00000B0076400914F6400C10073
:1022F00000B1076400C20000B20764009256640E89
:102300009037640E35640091546400924164075123
:1023100064079035640091546400924164079154BD
:1023200064009251640790356400924164079154AF
:10233000640092516407903564009241640791549F
:102340006400925164079035640092416407915192
:1023500064009251640790306400924164079035A4
:102360006400914D640092416406914D6400925165
:10237000640790306407356400914D6400924164B5
:1023800007914D6400925164079037640091566440
:1023900000924364074F64079037640091566400CD
:1023A0009243640791566400924F6407903764002B
:1023B0009243640791566400924F6407903764001B
:1023C0009243640791566400924F6407903764000B
:1023D0009243640791536400924F640391516404E3
:1023E00090326400914F6400924F6407903764000C
:1023F00092436407C00000B007640091536400C1B9
:102400000000B1076400924F6400C20000B207648C
:102410000790326400924F640790376400915664CD
:1024200000924364074F640690346400915864003E
:1024300092406407446407903464009250640740FB
:102440006407903464009156640092446404915788
:102450006403586400925064049158640390346497
:10246000009240640791566400924464049157645A
:102470000390346400915864009258640491586445
:10248000035864045864039034640E346400C0003C
:1024900000B0076400915C6400C10000B1076400F3
:1024A000C20000B20764009258640E9034640E3C7F
:1024B000640091586400925B64075B6407903C641D
:1024C00000915664009259640791546400925864D4
:1024D00007903C640691546400924F6407903C64FA
:1024E00000924F6407905464073C64009158640064
:1024F000925B64075B6407903764009156640092B6
:10250000596407903C6400915464009258640E90A2
:1025100037640091566400924F64049157640390AD
:102520003C640091586400924F64049158640358CD
:1025300064035864049037640091566400924F64B9
:102540000E9037640091566400924F640791566470
:1025500000924F64079037640791566403576404F0
:102560009037640091586400925364039158640456
:102570005864009253640391586404903764009146
:1025800056640D9032640091536400925664079033
:102590003764009153640092566407C00000B0078E
:1025A0006400C10000B1076400C20000B207640704
:1025B0009032640737640091536400925664079127
:1025C00053640092566407903E64009159640092EF
:1025D0005D640E903E640091586400925B640791C4
:1025E00056640092596407903E640E3E6400915612
:1025F0006400924D6407914D640092566407903ECA
:10260000640091596400925D640E903964009158A1
:102610006400925B6407903E640091566400925996
:10262000640E9039640091586403596403903E64C9
:10263000009159640459640359640459640390393E
:1026400064009158640E90396400925D640791545F
:1026500064079039640791546400925D640790396F
:10266000640091546400925D640E90356400915151
:102670006400925D64039154640B90356400924D44
:1026800064074D640790376400C00000B007640021
:10269000C10000B107640091566400C20000B20797
:1026A000640E90376400924F64074F6407903C6457
:1026B0000091586400925B640E903C6400915664F3
:1026C00000925964069154640092586407903C64E7
:1026D0000791546400924F6407903C6400924F64E9
:1026E00007905464073C640091586400925B640E48
:1026F000903764009156640092596407903C6400DE
:10270000915464009258640E9037640091566400AE
:10271000924F640391576404903C640091586400A4
:10272000924F6403915864045864035864049037CA
:10273000640091566400924F640E90376400915685
:102740006400924F640791566400924F640790377B
:102750006407915664035764049037640091586489
:1027600000925364039158640358640092536404C4
:1027700091586403903764009156640E903264005F
:10278000915364009256640790376400915364003B
:1027900092566407C00000B0076400C10000B10792
:1027A0006400C20000B20764079032640737640017
:1027B00091536400925664079153640092566407E3
:1027C000903E640091596400925D640E903E6400F6
:1027D00091586400925B64079156640092596407B3
:1027E000903E640E3E640091566400924D640791E1
:1027F0004D640092566407903E64009159640092C3
:102800005D640E9039640091586400925B64079097
:102810003E6400915664009259640D9039640091B1
:10282000586404596403903E6400915964045964E7
:1028300003596404596403903964009158640E90FC
:10284000396407915164009254640790396400918F
:102850005164009248640E90396400914C64009277
:1028600054640E9035640091516400925464079151
:102870004D64009248640790356400915164009261
:10288000546407915164009254640790376400C007
:102890000000B0076400C10000B1076400C200007E
:1028A000B2076407914F6400924A6407903764004E
:1028B00091536400925664079153640092566407E2
:1028C000903564009154640092416406516407900D
:1028D00035640091546400924164079154640092FD
:1028E00051640790356400924164079154640092EA
:1028F00051640790356400924164079154640092DA
:1029000051640790356400924164079151640092CC
:1029100051640790306400924164079035640091DF
:102920004D640092416407914D6400925164079098
:10293000306407356400914D640092416407914D05
:10294000640092516407903764009156640092438A
:1029500064074F64079037640091566400924364A3
:102960000791566400924F64079037640092436465
:102970000691566400924F64079037640092436456
:102980000791566400924F64079037640092436445
:102990000791536400924F64049151640390326430
:1029A00000914F6400924F64079037640092436433
:1029B00007C00000B007640091516400C10000B17D
:1029C000076400924F6400C20000B20764079032AF
:1029D0006400924F640790376400914F6400924303
:1029E00064074F6407903964009151640092456414
:1029F000074864079039640092546407456407905F
:102A0000396400914F640092486403915164045109
:102A100064009254640391516404903964009245B7
:102A20006407914F640092456403915164049035AA
:102A3000640091516400925864039151640451649C
:102A4000035164039035640E376400C00000B00782
:102A50006400914F6400C10000B1076400C200002F
:102A6000B20764009256640E9037640E356400918C
:102A70005464009241640751640790356400915496
:102A80006400924164079154640092516407903548
:102A90006400924164079154640092516407903538
:102AA0006400924164079154640092516407903528
:102AB0006400924164079151640092516407903020
:102AC00064009241640790356400914D6400924126
:102AD0006407914D64009251640790306406356438
:102AE00000914D640092416407914D6400925164DD
:102AF000079037640091566400924364074F64075F
:102B000090376400915664009243640791566400C4
:102B1000924F6407903764009243640791566400B3
:102B2000924F6407903764009243640791566400A3
:102B3000924F640790376400924364079153640096
:102B4000924F64039151640490326400914F640089
:102B5000924F64079037640092436407C00000B04E
:102B600007640091536400C10000B1076400924FF4
:102B70006400C20000B207640790326400924F64A0
:102B8000079037640091566400924364074F6407CE
:102B90009034640091586400924064074464079044
:102BA0003464009250640640640790346400915687
:102BB0006400924464049157640358640092506422
:102BC0000491586403903464009240640791566401
:102BD00000924464049157640390406400915864E7
:102BE0000458640358640458640390406400915886
:102BF000640E90406400C00000B0076400C1000093
:102C0000B1076400C20000B207640E9040640E3940
:102C100064009154640092586407914C64079039A1
:102C2000640091536407925864079039640091518D
:102C300064009258640758640790396400914F64A7
:102C400006516400924C64079039640E346400911C
:102C50005164009254640790396400915164009269
:102C600054640E90346407396407914C6407903EB5
:102C7000640091546400924C6407914C6407903E48
:102C8000640091536400924C64074C6407903E6466
:102C90000091516407924C6407903E6400914F6428
:102CA00007516400924C6407903E640E39640091B1
:102CB00054640092586407903E64009154640092FA
:102CC000586406C00000B0076400C10000B107648A
:102CD00000C20000B2076407903964073E640791A0
:102CE0004C64079037640091566400924F640791DA
:102CF0004C64079037640091546400924F640791CC
:102D0000536400924F640790376407924F640790B2
:102D1000376407914C6400924F64079037640091C8
:102D20005664074C6400924F6407903264009154DB
:102D300064079037640091536400924F640E9032A0
:102D40006400924F640790376400924F6407914C7F
:102D500064079039640091546400924C6406914C6D
:102D600064079039640091536400924C64074C648A
:102D7000079039640091516407924C64079039645C
:102D800000914F6407516400924C640790356407CA
:102D9000925B641590376400C00000B00764009136
:102DA000516400C10000B1076400C20000B20764B2
:102DB00000925D640E90376407914C64079039640B
:102DC0000091546400924C640E90396400915364F5
:102DD00000924C640791516400924C6407903964EE
:102DE00006914F6400924C640790396407914F64D8
:102DF00000924C64079039640791516400924C64CE
:102E00000790346407396400914F6400924C640465
:102E10009151640351640451640390346400924CF2
:102E200064079039640091546400924C6407915493
:102E30006407903E640091546400924D640E903E8D
:102E4000640091536400924D640791516400924D67
:102E50006407903E6407914F6400924D6407903E72
:102E60006407914F6400924D640391516404903E55
:102E7000640091516403516404516400924D6406EE
:102E8000903964073E6400924D6407C00000B007AB
:102E90006400C10000B1076400C20000B20764070B
:102EA00090396400924D6407903E6400914F640035
:102EB000924D640E9037640091566400924F640EF8
:102EC0009037640091546400924F640791536400FA
:102ED000924F640790376407914F6400924F6407E4
:102EE0009037640791566400924F640790376407E7
:102EF00091546400924F64079032640737640091E4
:102F0000536400924F640E90326400924F640690B6
:102F1000376400914F6400924F6407914C640790AE
:102F200039640091516400924C6407915164079098
:102F3000396400914F6400924C640791516400928F
:102F40004C64079039640791546400924C64079074
:102F5000396400924C6407914F64045164039035C6
:102F6000640091516400924164039151640451647E
:102F700000925B64079035640E376400C00000B0B7
:102F8000076400C10000B1076400925B6400C200E6
:102F900000B207640E9037640091536400925B6442
:102FA000075D640790396400915464009258640E80
:102FB0009039640091536400925664069151640004
:102FC0009254640790396407914F640092536407E8
:102FD00090396407914F64009253640491516400E6
:102FE00092546403903964009151640092546404D3
:102FF00091516400925464039151640092546407A7
:1030000090346407396400924C640E9034640092EA
:103010004C64079039640091546400924C640E90A3
:103020003E640091546400924D640E903E640091A1
:10303000536400924D640791516400924D6407906F
:103040003E6407914F6400924D6407903E6407917F
:103050004F6400924D640391516403903E6400916B
:10306000516404516403516400924D6407903964C3
:10307000073E6400924D6407C00000B0076400C1C1
:103080000000B1076400C20000B207640790396411
:1030900000924D6407903E6400924D640E90376438
:1030A0000091566400924F640E903764009154640E
:1030B00000924F640791536400924F640790376405
:1030C00007914F6400924F640790376407915664EC
:1030D00000924F64079037640791546400924F64E4
:1030E000079032640737640091536400924F640D77
:1030F00090326400924F640790376400914F6400EF
:10310000924F6407914C64079039640091516400B8
:10311000924C64079151640790396400914F6400A8
:10312000924C640791516400924C64079039640793
:1031300091546400924C640790396400924C640787
:10314000914F64035164049035640091516400927E
:1031500041640391516404516400925B64079035AB
:10316000640E376400C00000B0076400C10000B105
:10317000076400925B6400C20000B207640E9037DF
:103180006400925B64075D64079039640091586441
:10319000009245640D903964009156640092456434
:1031A0000791556407903964009245640791516412
:1031B0000790396400924564079158640092456411
:1031C000079039640092456407915664079034640F
:1031D00000924564079039640091546400924564FC
:1031E0000E903464009245640790396400924564FF
:1031F0000E903464009157640092536403915864B4
:103200000458640358640490346400915864075867
:1032100064009253640790346406915A6400925398
:1032200064079034640791586400925364079034A3
:10323000640792536407903464079150640092537A
:10324000640790346400C00000B0076400915064CB
:1032500000C10000B107640092536400C20000B2D4
:1032600007640E9034640091506400925364079197
:103270005064009253640790356400915464009246
:103280004D64074D640790356400924D64074D64AA
:103290000790376400C00000B0076400C10000B1AF
:1032A00007640091566400C20000B2076400924FA8
:1032B00064074F640790376400924F64074F6407B8
:1032C000903C640091586400925B64075B640690D4
:1032D0003C640091566400925964079154640092D2
:1032E000586407903C640791546400924F640790BF
:1032F0003C6400924F6407905464073C640091580A
:103300006400925B64075B640790376400915664C5
:103310000092596407903C64009154640092586490
:103320000E9037640091566400924F640391576485
:1033300004903C640091586400924F640391586477
:1033400004586403586404903764009156640092F2
:103350004F640E9037640091566400924F64079159
:10336000566400924F640790376407915664035780
:103370006404903764009158640092536403915838
:103380006403586400925364049158640390376452
:10339000009156640E90326400915364009256641A
:1033A00007903764009153640092566407C0000090
:1033B000B0076400C10000B1076400C20000B2079A
:1033C0006407903264073764009153640092566436
:1033D000079153640092566407903E6400915964CB
:1033E00000925D640E903E640091586400925B64AC
:1033F000079156640092596407903E640E3E640043
:1034000091566400924D6407914D64009256640792
:10341000903E640091596400925D640E903964009E
:1034200091586400925B6406903E6400915664007B
:103430009259640E90396400915864045964039061
:103440003E64009159640459640359640459640347
:10345000903964009158640E90396400925D64075D
:10346000915464079039640791546400925D640735
:103470009039640091546400925D640E903564004C
:1034800091516400925D64039154640B9035640023
:10349000924D64074D6407C00000B0076400903788
:1034A0006400C10000B107640091566400C20000CE
:1034B000B207640E90376400924F64074F64069021
:1034C0003C640091586400925B640E903C640091EF
:1034D00056640092596407915464009258640790AE
:1034E0003C640791546400924F6407903C640092DE
:1034F0004F6407905464073C640091586400925BE9
:10350000640E903764009156640092596407903CB1
:103510006400915464009258640E90376400915690
:103520006400924F640391576404903C6400915886
:103530006400924F6403915864045864035864040F
:103540009037640091566400924F640E9037640087
:1035500091566400924F640791566400924F64063E
:103560009037640791566404576403903764009160
:103570005864009253640491586403586400925351
:10358000640491586403903764009156640E90323D
:10359000640091536400925664079037640091531D
:1035A000640092566407C00000B0076400C10000C8
:1035B000B1076400C20000B20764079032640737A5
:1035C00064009153640092566407915364009256CC
:1035D0006407903E640091596400925D640E903ED1
:1035E000640091586400925B64079156640092599C
:1035F0006407903E640E3E640091566400924D64F0
:1036000007914D640092566407903E64009159649E
:1036100000925D640D9039640091586400925B647F
:1036200007903E6400915664009259640E9039648C
:103630000091586404596403903E640091596404F5
:1036400059640359640459640390396400915864BF
:103650000E90396407915164009254640790396464
:1036600000915164009248640E90396400914C645A
:10367000009254640E903564009151640092546439
:1036800007914D640092486407903564009151643D
:1036900000925464079151640092546407C0000082
:1036A000B007640090376400C10000B1076400C235
:1036B0000000B2076406914F6400924A6407903795
:1036C00064009153640092566407915364009256CB
:1036D0006407903C640091586400925B64075B64EB
:1036E00007903C64009156640092596407915464B9
:1036F0000092586407903C640791546400924F64B0
:1037000007903C6400924F6407905464073C640047
:1037100091586400925B64075B6407903764009182
:1037200056640092596407903C640091546400927E
:1037300058640E9037640091566400924F64039170
:10374000576404903C640091586400924F64039164
:1037500058640458640358640490376400915664B4
:1037600000924F640D9037640091566400924F644C
:103770000791566400924F6407903764079156642E
:1037800004576403903764009158640092536404B2
:1037900091586403586400925364049158640390F0
:1037A0003764009156640E90326400915364009225
:1037B000566407903764009153640092566407C0C2
:1037C0000000B0076400C10000B1076400C200003F
:1037D000B207640790326407376400915364009223
:1037E0005664079153640092566407903E640091BA
:1037F000596400925D640E903E640091586400929A
:103800005B64079156640092596407903E640E3ED3
:10381000640091566400924D640D903E640091598D
:103820006400925D640E9039640091586400925B6C
:103830006407903E6400915664009259640E90397A
:10384000640091586404596403903E640091596483
:10385000045964035964045964039039640091580D
:10386000640E90396400925164079154640092513F
:10387000640790396407925D640790396400925D33
:10388000640E90356400915464009260640E90352B
:1038900064009260640D90376400C00000B007645B
:1038A00000C10000B107640091566400925B64009F
:1038B000C20000B2076407926064079037640E3C50
:1038C000640091586400925B640E903C64009156D1
:1038D0006400925964079154640092586407903CC4
:1038E000640791546400924F6407903C6400924FC7
:1038F0006407905464073C640091586400925B64D0
:103900000E903764009156640092596407903C64AD
:1039100000915464009258640E903764009156648C
:1039200000924F640391576404903C640091586482
:1039300000924F64039158640458640358640390E0
:1039400037640091566400924F640E903764009182
:10395000566400924F640791566400924F6407903A
:103960003764079156640457640390376400915894
:103970006400925364049158640358640092536441
:103980000491586403903764009156640E90326439
:103990000091536400925664079037640091536419
:1039A0000092566407C00000B0076400C10000B177
:1039B000076400C20000B2076407903264073764EE
:1039C00000915364009256640791536400925664C8
:1039D00007903E640091596400925D640E903E64CD
:1039E0000091586400925B64079156640092596498
:1039F00006903E640E3E640091566400924D64074A
:103A0000914D640092566407903E640091596400A1
:103A1000925D640E9039640091586400925B640773
:103A2000903E6400915664009259640E903964008F
:103A300091586404596403903E6400915964035999
:103A40006404596403596404903964009158640E05
:103A5000903964079151640092546407903964006E
:103A6000915164009248640E90396400914C640056
:103A70009254640E9035640091516400925464062F
:103A8000914D640092486407903564009151640040
:103A90009254640791516400925464079037640013
:103AA000C00000B0076400C10000B1076400C2009C
:103AB00000B2076407914F6400924A64079037642C
:103AC00000915364009256640791536400925664C7
:103AD0000790356400915464009241640751640773
:103AE00090356400915464009241640791546400DD
:103AF00092516407903564009241640791546400C8
:103B000092516407903564009241640791546400B7
:103B100092516407903564009241640791516400AA
:103B200092516407903064009241640790356400BC
:103B3000914D640092416407914D64009251640775
:103B400090306406356400914D64009241640791A1
:103B50004D6400925164079037640091566400925E
:103B60004364074F640790376400915664009243A2
:103B7000640791566400924F640790376400924343
:103B8000640791566400924F640790376400924333
:103B9000640791566400924F640790376400924323
:103BA000640791536400924F64039151640490320E
:103BB0006400914F6400924F640790376400924311
:103BC0006407C00000B007640091516400C10000A8
:103BD000B1076400924F6400C20000B2076407900E
:103BE000326400924F640790376400914F640092F2
:103BF0004364074F64079039640091516400924513
:103C00006407486406903964009254640745640769
:103C100090396400914F64009248640491516403A8
:103C20005164009254640491516403903964009289
:103C3000456407914F640092456404915164039078
:103C400035640091516400925864049151640351A9
:103C500064045164039035640E376400C00000B002
:103C6000076400914F6400C10000B1076400C20006
:103C700000B20764009256640E9037640E356400FB
:103C80009154640092416407516407903564009137
:103C90005464009241640791546400925164079007
:103CA0003564009241640791546400925164079016
:103CB0003564009241640691546400925164079007
:103CC00035640092416407915164009251640790F9
:103CD0003064009241640790356400914D64009215
:103CE000416407914D640092516407903064073538
:103CF0006400914D640092416407914D64009251BB
:103D000064079037640091566400924364074F64DF
:103D1000079037640091566400924364079156649B
:103D200000924F6407903764009243640791566491
:103D300000924F6407903764009243640791566481
:103D400000924F6407903764009243640791536474
:103D500000924F64039151640490326400914F6467
:103D600000924F64069037640092436407C00000DD
:103D7000B007640091536400C10000B10764009271
:103D80004F6400C20000B207640790326400924F93
:103D900064079037640091566400924364074F644F
:103DA00007903464009158640092406407446407AB
:103DB000903464009250640740640790346400912A
:103DC000566400924464049157640358640092500E
:103DD00064039158640490346400924064079156DF
:103DE00064009244640391576404904064009158C5
:103DF0006400925D64039158640458640358640439
:103E00009040640091586407925F6407904064009A
:103E1000C00000B0076400C10000B1076400C20028
:103E200000B207640E90406400925D640D903964A6
:103E30000091586400926064079158640790396457
:103E400000915864075864079039640791586400DA
:103E5000924C640790396400925464079158640747
:103E60009039640092536407915864079034640059
:103E7000925164079039640091586407924F640727
:103E80009034640091586400925164079039640042
:103E90009158640E903E6400914C6400924A640E06
:103EA000903E6400914C6400924A6407914C640611
:103EB000903E6400924A6407914C6400924A640701
:103EC000903E6407914C640092486407903E6407FA
:103ED000914C6407903964073E6400914C6407C0BC
:103EE0000000B0076400C10000B1076407903964A6
:103EF00000914C6407903E6400914C6400C2000045
:103F0000B207640E903764009156640E90376400D7
:103F10009156640092566407915464009256640767
:103F20009037640092546407915664009254640779
:103F30009037640092516407915464009251640771
:103F400090376400924F640691566400924F640764
:103F500090326400924A6407903764009154640080
:103F6000924A640748640790326400915664009254
:103F70004864079037640091536400924A64074A8A
:103F800064079039640091456400924B640791483E
:103F90006400924F64079039640091486400924B2A
:103FA000640791456400924A640790396400915B0C
:103FB000640092486407915B640790396400915BE8
:103FC00064075D6407903564079154640790356415
:103FD00000926264079153640092626407903764B0
:103FE00000C00000B0076400C10000B10764009287
:103FF00062640791546400C20000B20764009262D8
:1040000064069037640091536400926264076264AE
:104010000790396400916364075B640092636407EE
:104020009039640092636407636407903964009177
:104030005B64009264640764640790396400915B78
:10404000640092646407915B640092646407903931
:104050006400915B64009256640E90346400914F4A
:1040600064079039640E346400914F64079039649A
:104070000E3E6400915164075B64009256640690A2
:104080003E640E3E6400915B64009256640E903E66
:104090006400915B640092566407915B64009256E1
:1040A0006407903E6407915164009254640790390C
:1040B00064073E6400914F640092536407C000009F
:1040C000B0076400C10000B1076400C20000B2077D
:1040D0006407903964009151640092546407903EE3
:1040E0006400914F64009253640E903764009151C4
:1040F00064009254640E903764009156640092629A
:10410000640791566400926264079037640E3764C6
:1041100000914F6400925B6406914F6400925B646F
:104120000790376407915B6407903264009159648B
:104130000790376407915B6407903264009159647B
:104140000790376407915B64045D640390396407EA
:104150009160640790396400915D640E9039640049
:10416000915B640757640356640490396407915463
:10417000640790356400914F6400925B640791512D
:104180006407903564069151640790376400C0005D
:1041900000B0076400925D6407C10000B1076400CD
:1041A000C20000B207640790376400914F640E901C
:1041B00039640791436400924A640790396400911E
:1041C00060640E9039640091436400924A640E90DA
:1041D00039640E39640E34640091456400924A6477
:1041E00007903964079143640092486407903464EF
:1041F0000091456400924A640790396407914564D0
:1042000000924A6406903E640791456400924A64B5
:1042100007903E640E3E640091436400924864043B
:10422000914364009248640A903E6407914A64078F
:10423000903E640091516407566407903964009180
:104240004A6407903E640091516407C00000B007C3
:104250006400915B64079039640091516400C1006F
:1042600000B1076400924A6400C20000B20764070C
:10427000903E6400914A64075B6400924A64079030
:1042800037640791516400925664079037640E3783
:104290006400915164009256640D9037640091510E
:1042A00064009256640791516400925464079037F9
:1042B000640E32640737640E326400914F640092DA
:1042C0005664079037640E396400914F640092562B
:1042D000640E90396400914F64009257640E9039D7
:1042E0006400914F640092586407915164009258A1
:1042F00064079039640E356406915B6407903564F9
:1043000000915C64075D640790376400C00000B0F2
:1043100007640091606400C10000B1076407915B0D
:1043200064045D640390376400916364076264070A
:1043300090396400916064075B64045D64039039A4
:104340006400915164075B640790396400914F6485
:1043500007566400C20000B20764079039640091F8
:104360004F64075164079039640791546400924F79
:1043700064079034640739640791546400924F6471
:10438000079034640639640E3E640E3E6400915416
:1043900064009251640791536400924F6407903E09
:1043A00064079154640092516407903E64079153EE
:1043B0006400924F6407903E6407916464009269C0
:1043C000640790396400915B640092646407903ED6
:1043D00064009162640092676407C00000B00764E3
:1043E0000091586400C10000B1076400C20000B22F
:1043F0000764009262640790396400915B640092E4
:10440000646407903E640091566400926064079172
:10441000586400925B640790376400916264009274
:104420005D640791626400925D64069037640E37A4
:10443000640791626400925D64079037640791603D
:104440006400925D6404915F6400925B6403903742
:10445000640092596404915A640092586403915222
:10446000640092566404914964009254640390324B
:10447000640091416400925364049132640092514B
:10448000640390376400924F640E9032640737647F
:104490000E396407915D6400925864079039640096
:1044A0009158640092546407915B640092566407CB
:1044B00090396400915664009251640791586400E9
:1044C000925464079039640091546400924F6406DA
:1044D000915664009251640790356400914F6400D6
:1044E000924C640791516400924F640790356400C8
:1044F000914C640092486407914F6400924A6407AB
:1045000090376400C00000B0076400914B6400C1A4
:104510000000B1076400C20000B2076407914A645A
:10452000079037640091486407436407903964003A
:10453000914564009251641CFF06014537FF2F002E
:104540000000007645000000000000008B450000E0
:104550000000000000A34500000000023F620000D0
:10456000FF01000202265F00001703180302B54591
:1045700000006F197019000204000ADE00098000B3
:10458000071C0400FE0002080EFF00000204000ADF
:10459000DE0009800007210400FF0200FE0002087F
:1045A0000EFF00000208000A01000940000734194C
:1045B00000FF0AFF00FF00FF00FF00FF00FF00FFF9
:1045C000FFFFFC01010001FBFF04FE02FCFB06FFF4
:1045D0000000F70404FE03F60006FD04F9FB08FEE4
:1045E00002FEF60602FF02F7FF06FF03FBFA0600D3
:1045F00002FEF803030002F9FE05FF03FBF90501C3
:104600000200F702040103F7FD050104FAF80501B1
:1046100002FFF604050001F6FE060003FAF90702A0
:1046200001FFF502060002F8FB070101FDF8040492
:104630000000F8FF06FF00F9FA060302FFF8030482
:104640000001F7FE060102FAF9060201FCF6040574
:104650000001F7FE070002FAF9060200FFF7010564
:10466000FF00F7FB080403FDF704040000F7FF0652
:104670000002FAF9060100FDF503060001F7FF0844
:104680000001FAF9060201FFF50103FF02F4FE1032
:104690000802F8F204040100F60105FC00FAFD0826
:1046A00000FEFBFA0703FE01F50209FEFFF9FF0514
:1046B0000305FCF50403F801F2FC1D0F00E9F50900
:1046C0000102FDF8FE0800FEF90107F501FAF70DF9
:1046D0000903F7FD0A01FF03F7F30D0304FBF7FFDE
:1046E000F2080AE3FE330DF4F6F600FDFF01F002D6
:1046F00002F40909FFF906FEF3020FFFFDF7FB11B3
:1047000001F9F1F51D03F40EFDFAF30301FDDB06DB
:104710003901F8DD031FFBEB020402FC00FFFBFB89
:10472000FD0BF8F6EE1D0F00EBFD17FF03F1FC0388
:1047300009F507FEF1EF0C1005E5EC2D11FEF1F780
:104740000A03E60205FFF60613F4FFFA05FBFD0176
:10475000F9070BF3F90C01E7091AF807F4FFFD0359
:1047600002F20206F3D82915ED1404FDFCF3F90852
:104770000800F3F90C03E708F4F71406FE0201F64B
:104780000AFB03F7001101E9FAF6031FFBF404FF2B
:10479000E00C1511FBF709FDE7FA02FC1AF2F9111A
:1047A00004F400FC04FA0008FEF7EE02F71111020F
:1047B0000704DFFD0E0102EA000CF1F512031102FD
:1047C0000303F6F2F70804F3F5100B04EDFC04FF05
:1047D0000404FC05F3EB0D050A060004FEE70105E1
:1047E0000101ED00060602060609FDF7FBFDFBF3DD
:1047F0000402F705130900F7FCFFF503F9F807F8C1
:10480000F4030C100D0301F2F606FDFBF7F4F9FDBD
:10481000050D0A0D06FCFEF9F9FFFFFEEEF1090792
:104820000F0BF9FE00FD02F6FF09F4F5F8FC141079
:1048300000FFF60306FCFFF3F0FC020E100502FC7D
:10484000FBFBF80306FEFBECF20A101804F5FDFA78
:10485000FBFEFB0203F5F7F808180803FFF6FEF865
:10486000F906F7FBFA000A050C09FDFA01F6060144
:10487000F9F4F20400070D00F41003F9FD0103F749
:10488000FEF0F20E0EFB030301040305F3F406FB36
:10489000FF02F5010E0603F9FA08F6FEFBF2070720
:1048A0000BFEF101000B09FAF905F9F2FAFE0FFB14
:1048B000090CF0FDFC0808F6FB0501F9FDFA1200F1
:1048C0000200F9FBE80A0C03FA04FE04EFF91601F2
:1048D0000BF5F80EFCE4FF0607FD040EFFFAFB01E2
:1048E0000701F009FFFFE5F51B0D0601F5FAFDF8DC
:1048F00008FFFB09FB0100D6141A0803F3FE08F0B9
:10490000F602ED13081004ECE7071806F1FD0BFCA6
:10491000FBEF000E0905F9E800EE0F18F1030303A1
:1049200005EDF617020702EC00F4F512F0F8082284
:1049300019EDECF2060705F8FFFBED02080B0A077C
:10494000FCE5FEFEFD09FEFE070701F7F01506FE79
:104950000FE9F603FAFC00FFF7231BF3DDF010006C
:1049600009F70603FD06EB040E07F5EDF1F20B1C4B
:104970000BF60805FE04F3F6030508EFF704FC0345
:1049800007FAE91F24FBEBECF1081802F9F8F7FF2E
:1049900008FB0308F9F7EF000F0411F40306F3FB1B
:1049A000FD00FD070806F2050AF0FA05E9002309F3
:1049B000E00001F20D0E03F60701FEF30306F1FF1E
:1049C000ECE4180E0C07040AF70006F0ED13FB01E7
:1049D000F4EEFC190EF6F9F6220FF7FDEAEA060BE3
:1049E000FEFE07F61BFDED0BFC03F0EF0805FD12C4
:1049F00000FC05F6FA13E9FF0BFE06EC0A0901F2CA
:104A000000EA0B23EA0107EEFB0D05FA0606030098
:104A1000E800FF02FCE4FE1BFA051BF90402FE029B
:104A2000E9F70DFD04EAE31528F3FEF20A25F30584
:104A3000F3F1F8FFF9F905011519EBF00A07F4F69F
:104A4000FBF901F418020500F41503ECFF0B00F369
:104A5000E5051505F7F10727EFF70CF7F4FC02FD64
:104A600008060E05FEE2FD04FDF3F80805F80E1138
:104A7000FC0CFB03F9F6F70FF6F7E0EF2E13FAEE56
:104A80000C1CFBFAFDF2FFFC00E9FEFF181C02EA19
:104A9000F009FB0200FBFAF3F91BFF00FC0A0FF917
:104AA000F10E02F4F4E3091704F0150FF4EF10FE11
:104AB000F501F9F6FC03180E07F7E105FFEFF8150D
:104AC000FBF5F81613F70A08F903E4FA0DFAF1D921
:104AD000121E0BF51F09F7FCF700F6FBFEEE00F1C6
:104AE000033504FFEAF702FB0208F4F6F7011505A7
:104AF000EF0B1401F3F20EFFF9EAEE0418F11B12AA
:104B0000F5F3F817FBF7FEF0F6FFFF1C0909F0F1CB
:104B1000F700F10F0CF1FFF5130FFB08010000E5A2
:104B20000900F7E5F6031500191BEE04F6FAFFFF7E
:104B3000F4FEF0F3F5251D02F8F2F3FD0806FAF392
:104B4000FEEF0B11FEF81D05FDF1FA07FBFCF2E08C
:104B50000F060B29F4F7F311FEFDF602F7F3FC073D
:104B6000190700F5EDFEF4FE20F3FBF4010C0A0139
:104B70001002FAFCE806FDEDFFF8FEFF0C35FCF92B
:104B8000FD00F300F6F905EAF100290B03FDF6F646
:104B9000FF0800F9F6F6F6050EF5131DF701F2FD14
:104BA000FFF901ECF001022614EEEF0E08FFFBF016
:104BB00008F0FBFE051406FEF5F0F8FE0D0EF1FA06
:104BC000FAFF070B0C050303FAE9FEF2FB0EF0F304
:104BD000032021F9F607F9FB01EBFB01E9FE0C0BC1
:104BE0001409FAF7F20B02F7FCF100F300FC0D20B8
:104BF0000DFD00F1F103FD02F0E8F31C210BE303CE
:104C000014F802F9F504F9F501F91611F6F9EEF0C8
:104C1000120F00F7FCF7F90213080707F9F7EEFE89
:104C2000EC0D0DECE7112514FAFB02F800FCEFFD8A
:104C300001DE10020621FCFDF7F50EF9FFFFF9F881
:104C4000F8F2FA24120EFEFBEDF70303FAF4E1008A
:104C50002115FCE9180AFF00F3F60BF3FFEFF41F30
:104C60000DF9FBEEF6180101FFF4FAF6FF1D000D39
:104C700007FCEFEDF2FD1BFCE5F81A0F0E00FE033A
:104C8000FDFEF9E70DF1F711E7121CFCFF00F70A32
:104C9000F9FA04F4F4FBE613220B0B04F5EBFA002B
:104CA00006FCECEB140610FBF81CFF0000E8070301
:104CB000F7FAE7FD1C0DF108E00C1DF508F7F4FE0E
:104CC000F104110C0C08F4EEF8E61311F1E71105EC
:104CD0000A16F30700FE03EEF409EB0701EA141BC2
:104CE000F60DF9F70CEF09FFECFDF3EB1B180814B8
:104CF000FBF1F9F50AFBF8EB0607FA15F20D1102C4
:104D000001F7EE0506FAF3EAFC2200FF04DE1D07B8
:104D1000FB08F5F202F8020A031604EFF6F1F317A6
:104D200001EC0D06F0130B0100FF00FEF0F701F29D
:104D300010F7EB1610FE0FF5FC03F90600ECFCF182
:104D4000F120081010F9F1F6FD06F9EE0D06EC035E
:104D500000051706FF00FDEC0701FAF0EB0811044F
:104D60000AF3F31B01FF05F3F303F508FB1013FD32
:104D7000F3F4ECFD1AED1107F1FA081202FA05FF3F
:104D800000EBF7FBFB11EEFB08110905F600FFFA3B
:104D900007F7EFFFED0313091904FCF1F5FA09EA2F
:104DA0000B12EDF9F60113100207FDF7EF0400FCFA
:104DB000F1F3010D0DFFED0519F70AFCEFFEFCFC08
:104DC000FAFD1A0FFCFAEBE61603F91DF3FAF401EB
:104DD0001500FF0903F8F1F0F90E05EDF8081903C5
:104DE000FAFD04FEFF02F0FFF2F20E070B130301BF
:104DF000F2ED0CF7F11902F4F8E9051A0C0604FDBE
:104E0000F7F0FE07FDF3F0010E12F2F418090000AE
:104E1000F300FEF6FEF403150AFD00DDF912F818A2
:104E200008F5FCF1001103000AFEF3F9E600190091
:104E3000ECF8071705F509FFFF02F3F50DE8F40C90
:104E4000FF1418FC04EEF008E70F18F4F2F8E6116E
:104E50001E050A04F9F6F3FC0401F0F3030919E353
:104E600006130606FAF10401EFFDF20B1A02FFFE2B
:104E7000D808FF0D1BFAF0F7F60411FD0F04FEEF42
:104E8000F5E80819F6F0FA051901FB04FE03FEF730
:104E9000F70CDE0008FE1B09FF08EBF9F5F4250707
:104EA000EEF1F5E52114050EFEFAF2F6FD09F8EF34
:104EB000F403160AE70C120100F9F40DFBF0F9F403
:104EC0001615FF00F3DE03051F10F1F3F8F60B09CA
:104ED000FE1004F9F3F9E21610F3EDFB111502F4DC
:104EE00004FD08FFF105FFDC0505071A030001EECC
:104EF000F1F6141DF8ECF0F2F7220D070CF7F6F7B7
:104F0000FA0601F6ECF7081707E912050103F7FEA8
:104F100009FAE7F4FF1A13FC00EBE2051B1D02EE91
:104F2000E9F9020C030312FEF4F6F1F71506ECF0B2
:104F3000051315FEF7F80505FFFCFBFDE104030E64
:104F40001AFFFFFBF2E80E1A08F8E2F3F6071D0558
:104F50000C04FAF8F305FDFCF4EFFC0E16FAF70763
:104F60000902FE02FB05FAE8F804140CFCFAE9E871
:104F70001E1F04FFE6F4FB0908FB0B0BFEF7F5EC24
:104F8000040FFAF3F3091C0903EBFD0A0004F6FC15
:104F9000F0F500090F1100FBFEE9FB180903EEEB29
:104FA000F5F71515030506F5FEF505F7F6FFEEFD19
:104FB000140FF5000408010500F5FF01E0FE0F11D4
:104FC00003F7FFDF09210BFAFCECEF030B050105EA
:104FD0000EF7FEF5EC0A0203F3FA03170504F0FBE3
:104FE0000EFF02F2F3FDFAFE0C070BFD04F00303C3
:104FF0000A01FEF7E4F9FC190D040900FAFFF5FDBA
:10500000F201FEF7F81001010FF70C0303F8F603A5
:1050100000E0050C0805FDEA01180404FD03E4FCAA
:10502000040BFC080505FDF9EEF0110002FCF3008D
:10503000130C07EB030902F7FAEC0302F60C020D5E
:1050400001F80712E8040300F8EEEF02190E020659
:1050500002F8FFF300F30402F3F30D020A0DF80A5D
:1050600002FAFEF804FEE505030C05F4F91DFDF94E
:1050700009FC01F2F5FE05060A010AFAF3E8050744
:105080000408F8E802180B07F10503FBFEF5EE1320
:10509000FCED0A0708FC0420F0E808FE05FBE8E741
:1050A00016130B020701F2FDFCF4FF0DFCE6F80CF1
:1050B000011A04FC0404F8FEF90AF6DF0C0505FFEA
:1050C000000C0CF4FD050101F2EA0DFD090D0006CE
:1050D000F3F4F00C040904F1EF031411FCF8FD0BD8
:1050E000F8FAF2F916EAFA050A010C1205EBEE08D5
:1050F0000406F4DA02130D0F0005FAFBF301F50BB9
:1051000002F6F2F3051018FDFB09FEF9FFF905EAB6
:10511000F7FC0B001001010FEA050303FBEEF90396
:10512000FC1507FE01FAE4030C0506F9F6EA081877
:105130000EF305FE02FCF9EFFE0DF0F60A01131264
:105140000202E1020506FBF3E204110B10F806006F
:10515000F302FAF50CFDFBEDF6051C0706FFFD0456
:10516000F5FFFAFEF1F800FE130BF70DFAFC02064C
:10517000FBFFEBF904FF1BF606FFF0F40C01050939
:10518000F4F7F4051AF90504F70AF5F6EE0D00F642
:10519000FCFF0D170601F2F10700FE03EEE5110416
:1051A0001406FE00FDF807F1FB14F3FDEDF5081AF7
:1051B0000B03F90400F4FE03EEFDFAF41512FFF6FA
:1051C0000DFBFEFEFF05FCF1FFF40914FEFF01EEEE
:1051D000FE09F712F9FEF5F1041CFC0604F408F0D0
:1051E000F5FE0303FBED0A1A09FE06EEFFFE0102BF
:1051F000FEEEEF0B001804FA05F8FE06ED0906FABC
:10520000F9F0EB1B17020DF103FBFDFFF9F205EAC4
:10521000061C01F90308FEFDFD010101F2F7F2157C
:105220000DFE01FFEE0408F90A00FAF6EE1013F97C
:1052300014F9F9FFF9EE050205F0F71C060505FD66
:10524000F302FA0000FDEFF9FD0B0D08FC01FEFF73
:1052500004EA0903FFF5EBF91B0F0704F40105F25B
:1052600004F6F8FDF4150304FC07FE04FCFD04003D
:10527000FFF4EEFE100DFFFAFDF50DFA0406FFF93E
:10528000F5F4100B000EF6FB04F0F702FF02F30E2C
:1052900006080307F4FD03F409FAFBF1F90209110A
:1052A00002F8030105F1F90703FDF7EDF7190E0AFE
:1052B000FEF900FDFC02F0F901030802FE00020BFA
:1052C00001F504FE01FBFAEA030E08FFF805F904F4
:1052D00001FC0600FAF7F610040606FDFFFDF5F6E0
:1052E000FE00FE000905030703F803F8FF02F9F9C1
:1052F000F9F209080A03F70B0002F2FC030400F2BA
:10530000ED00140F0501F704FCFEFDE904FE0A059B
:10531000FC00FF050AFCF70400FB05EEF009060E91
:10532000F80100F90203FC0405F8F6FB090307067F
:10533000FA00FAF5F7FE06FD0A0201000A00F90676
:10534000F501FEF900F3F80C020800010704F7F577
:10535000FD020BF8F4F1FD13110401FC00FBFCF35A
:10536000F6010807FDFC0103060DF5FEFFFE020134
:10537000ECF707040CF90103F704FFFD0AFEFAF34A
:10538000FE000C0A0201F9FBF4F902000607FEFB1D
:10539000080CF705FDF8FFFEFAFEF3FE09FC0DFF11
:1053A000010D00F3F7FE0806FAF1F0FC1B0F0101F6
:1053B000F900F900F4F6070AFBF80203011102F301
:1053C000FC04FE0201E7FE000C07FB06FFF70400E9
:1053D000FE0802F9F2F905100804FCF6FCF8F905DC
:1053E000FE0CFEF8020908FC06F6FA02FDFEFEF2CB
:1053F00000FF0509030208FAF301FC0802FBF1EDC6
:10540000041D0C04FDF7FE01F7F6F90E07F4FFFF8B
:10541000050511FAF7FD010004FAE9FF060705FD8D
:1054200003F9FC0BF9040500F5F6F809110604F27E
:10543000FAFFF005FF010EF5FE030A0103FDFCFD76
:10544000FB01FDF9F700030607040004F9FDFC0069
:105450000400F6F2EE0B1D0605F9F903FCFAF7F865
:105460001103F4FF01FB1105FCFDF8060002F5F045
:10547000FE090905FBFAF90705FDFE05FFF6F6FC36
:10548000100A06FDF6FDFAF20BFB040DF50105000E
:105490000304FE01F6FE02F8F502FB04090603FA16
:1054A00004FDFA01FFFFFFFAEDF417130501FCF804
:1054B00001F8FFF6F816FBF806F8FF1502FFFCF8F6
:1054C00006FDFBFEEE000B0505F9F7020C00FEFAE7
:1054D0000205F1F8010A0C0202F4FDF3FC09F50ED5
:1054E00003F70503FD0505FD03F7FC00F106FEF8D3
:1054F00009060403FA0202F803FBFD05F4EE0211AB
:105500000D0300FEFCFAFEFCF4060CF9FB02F802A7
:105510001400FFFCF802F806FAEF020B0400FBF798
:105520000907FFFEF70AFEEE03FF080903FEF8F580
:10553000F706FD000CFCFE03010402010003F6FB6C
:10554000F7FA0AFEF7080507FFF90BFCFC00FAFF63
:1055500003EDF80B0A0A010101F4FC02F4FD09074E
:10556000FAFAFC01090DFFFEFCFAFB0203F9F30253
:105570000A0300F6010A03FBFDFB08F9F705FD0D20
:10558000070100F3F1FE01000904FBFDFB0C020121
:1055900005FC02F5F4FE0108FBF4060A06FC020213
:1055A000FEFC00FDFEFDEFFE0A0B090003FDF2020A
:1055B000FEF4090CFBF8F20607070BFBFEFCF6FFF6
:1055C00007FEF9F4FE0E02FAFF000CFEFCFFFC03DE
:1055D000F8FDFC020C0602FCF0F40401040FF9FCD7
:1055E000F50312FA0402FFFEF1F8020507F5F50BC8
:1055F0000CFB0402FDFDFD04FDFDF9F6FE0B0A05A2
:105600000201F8F604F9FB1201FAEFFB0B0609039D
:10561000FFFBFDF40406FCF9F1030FFB00FE040799
:10562000FA02FFFEFEFDF8FD060807FFF8F3F70893
:10563000000D07F8F6F70C09FD0205FDFEF0FD016F
:105640000605EEFA0E060106FEFCFDFF02FCFAFF5F
:10565000F0050C0609FFFDF7FB02F7070EFCF2F35D
:1056600000090D0104FEFEF8FB0801FDF5F3090930
:10567000FD01FC0803FB02FEFB04F9F900050C0424
:10568000FAF8F3FC07050E02F2F401090BF8040125
:10569000FDFAF5FF000CFBF3FD09060503FDFCFE1A
:1056A0000203F6FFF7F60B040A06FCFCFBFBFEFF09
:1056B0000C07F5EFFCFE0F0BFE05FDFBFB000203E4
:1056C000F9F6F9050604FD0008FFFE03F8FF03F9EB
:1056D000FEFD070900F7FDF3FE0E0707FAF0FDFFD8
:1056E0000B07F80405FCF6FFF70807F6F7FE0909B3
:1056F0000400FDFDFF04FBF601F30206020A04F9B3
:1057000001FBF702060901F0F6FCFE1205FC06FE9D
:10571000F603FC04FEF9FAFA040603F70905FD0294
:10572000FFF90101FBFBFF070AF7FDFEED0910037E
:1057300002F9F200010A04FA0603F400F7F90D0178
:10574000F9F800070BFC02FDFD0501F9F9FDF9056B
:1057500005FD0AFEFC07F4FD070700FEEFFCFCFD5B
:1057600015FE0008F801FEF905FBFDFCFCFD0CFB35
:10577000FE0C0003FFFDFA01FFFDFAFE0803F90429
:10578000F5F4140CFA02F5FA02FB0BFEFE09FDFA21
:1057900001F3FE0EFCFBFDF70E030004F90601FE0B
:1057A000F7FEF80008FC0102000400F8020BFC03FD
:1057B000F9F401F10710000105F903FBF806FB01FC
:1057C000FFF40305F9070A01FF02F801FB03FFF7E5
:1057D00003FF03FE01F3FE1700FEFEF602FB0000CE
:1057E000040106FCFB00ED0A08FB02F4FD090304BA
:1057F000FFFF0302F500F7F90D00FDFD020206FCB4
:10580000FA060401FEF7FEFAF6080DFF0403FB0496
:10581000F7FFFFFC05FBF20402FB0E04FE05F90096
:10582000FDFB08F8FCFFFE0105FAF50D0BFFFDFB83
:10583000FFFCFDFD01040503FC01F4F70B04FE0170
:10584000F3FD07000AFEFF07F9FCFEF4010BFDFC67
:10585000FBFE0B00FB020206FEFAFDFCF9F70B074C
:105860000104FD03FDFBFDFF0103F8F405FA04103C
:10587000FE04FCFC03F90106F8FDFEF70805F40040
:105880000E0700F9FE00FCFCFDFF08020001FBF81A
:10589000FB0A0202FCF501000407FD0500FB00FB0A
:1058A000F5050BFBFEF6030CFBFF020008FBFCFFFB
:1058B000FAF5FE0905020007FDFDFDFCFF04FEF9F7
:1058C000FAFDFB080E00FFFE0001F90103F901F7E4
:1058D000FE06FFF6050C0400F802FDFA01F90007C8
:1058E000FD08FDFAF9FE0702FFFCFDFCFF050400C0
:1058F000FF0100FCFCF50906FDF9FC0405FB0105B0
:105900000004FC00FCF7F8020701FE0603FEFDFFA1
:10591000FB0002FFFEF7FDFB0B0DFAFF03FF00FA91
:105920000100FDFCFDFE02FFF50E09FE00FD01FB7E
:10593000FC00FB01010503FDFBF90205FFFF01FB74
:10594000FC010304FFFF05FDFEFAF70906F900FD5F
:10595000FF05F80703FE05FCFDFCF8FA0802FD044C
:105960000304FCFFFFF8020102FBF8FDFB0F04FD3E
:10597000050000FDFCFD00FC04FEF504F9FD13012B
:105980000103FCFEFBFC03F9FE070103FDFBFE0225
:10599000000003FEFCFCFF05FF020403FCFCFAFA16
:1059A0000AFFFF01F701FFFE0AFF0205FDFAFCF600
:1059B0000206FA04000304FE01FBF8030300FCF8EE
:1059C000F9040704020300FFFEFBFFFD0400FBF7E0
:1059D000FFFA060F0001FFFBFFFB0100F8050001C5
:1059E00002FDFB0200FF030000FCFB04FB010800BA
:1059F00002FCFCF8FF060300FEF9FD0001070302AC
:105A000003FAF9FBFA0503FF00FE0303FE02F8FDAB
:105A100004FF00FBF7FE020407010100FEFDFBFB93
:105A20000702FFFAF6FDFE0A0DFF01FEFAFFFD0078
:105A3000FD0101FE0001FCFF03FE00020100FAFF70
:105A4000FFFA09040001FBFBFC010701FEFEF7FC65
:105A500001020904FF01F9FBFEFC0503FEFFFE0342
:105A600001FFFFFCFE0300FDFAF90201050600003C
:105A700000FEFEFB0106FFFEF8F5FE030E0AFC0128
:105A8000FBFB02FDFE0200FEFDFF01FE0104FB0028
:105A900003FEFFFBFFFD000702FEFEFDFCFF05030A
:105AA00000FFFCF7FF00040BFF00FCF9FEFFFF0600
:105AB00000FDFFFD0302FD01FBFF04FEFEFAFE01F7
:105AC000030303FFFE01FEFD000203FEFDF5FA02E3
:105AD000031001FEFFF90200FB0102FEFFFCFE02C3
